:030000000204F304
:10000300C00078C40000D8FCD00022C000C0017931
:100013002E78B4D8FED9FADAF6D001D00022D296DF
:10002300120003C29622A2E79286A2E69287A2E575
:100033009290A2E49291120021120003A2E392860D
:10004300A2E29287A2E19290A2E092911200212271
:10005300D2A0020029C2A0020029C296C297C00200
:100063007A2812000ED0027433120058743312002F
:100073005874321200587428120058740C12005825
:100083007401120058C0027A0212000ED00222E458
:10009300936006120053A380F6224440448002007A
:1000A30058C0E0E8C4540F4430120053E8540F44DE
:1000B30030120053D0E022C0E074011412009DD02E
:1000C300E0C000A83C1200A4D000C000A83B12006E
:1000D300A4D000C000A83A1200A4D000C0E074016C
:1000E3001412009DD0E0E53C54F0C46003020158B3
:1000F300C0E07420120053D0E0E53C540F600302CB
:100103000158C0E07420120053D0E0E53B54F0C422
:100113006003020158C0E07420120053D0E0E53BB5
:10012300540F6003020158C0E07420120053D0E062
:10013300E53A54F0C46003020158C0E07420120091
:1001430053D0E0E53A540F6003020158C0E0742035
:10015300120053D0E0C0E074071412009DD0E0C039
:10016300E0742E120053D0E0C000A8391200A4D0CE
:1001730000C000A8381200A4D00022E4780079005F
:100183007A007B10E58A33F58AE58C33F58CE83801
:10019300D4F8E939D4F9EA3AD4FADBE822EA540F7D
:1001A3004430120053E9C4540F4430120053E9544D
:1001B3000F4430120053E8C4540F4430120053E884
:0801C300540F443012005322D6
:1001CB00C0E0C0D0C000C001C002E4F538F539F57D
:1001DB003AF53BF53C7A20E533A2E779047830E633
:1001EB0033F608D9FA79057838E636D4F608D9F912
:1001FB00DAE5D002D001D000D0D0D0E022C0E0C0F0
:10020B00D0C000C001C002E4F538F539F53AF53B32
:10021B00F53C7A20E533A2E779047830E633F6082B
:10022B00D9FA79057838C0D0E6243320E70224D0F8
:10023B0020E30224FDD0D033F608D9EADAD6D00277
:10024B00D001D000D0D0D0E022C0E0C0D0C000C0E0
:10025B0001C0027A207905C3783CE613C0D030E7A1
:10026B000224D030E30224FDF618D0D0D9EC790467
:10027B007833E613F618D9FADADBD002D001D000C6
:10028B00D0D0D0E022C0E0C0D0E5302534F530E549
:10029B00313535F531E5323536F532E5333537F570
:1002AB0033D0D0D0E022C0E0C0D0C3E5309534F5D8
:1002BB0030E5319535F531E5329536F532E5339547
:1002CB0037F533D0D0D0E022C0E0C0D0C3E53095B5
:1002DB0034E5319535E5329536E53395379200D0D7
:1002EB00D0D0E022C0E0C0D0C3E5349530E53595E1
:1002FB0031E5369532E53795339200D0D0D0E022F8
:10030B00C0E0C0D0C200C3E53495307014E535951C
:10031B0031700EE53695327008E53795337002D2A1
:10032B0000D0D0D0E02212030B2000030202EF22F8
:10033B0012030B2000030202D322C0E0C0F0C0D096
:10034B00C000C001C002C003E5308534F0A4F8A999
:10035B00F0E5318534F0A429F9E435F0FAE5308580
:10036B0035F0A429F9E5F03AFAE433FBE5328534AC
:10037B00F0A42AFAE5F03BFBE5318535F0A42AFA27
:10038B00E5F03BFBE5308536F0A42AFAE5F03BFBC4
:10039B00E5338534F0A42BFBE5328535F0A42BFB3C
:1003AB00E5318536F0A42BFBE5308537F0A42BFB2C
:1003BB008B338A3289318830D003D002D001D00000
:1003CB00D0D0D0F0D0E022C0E0C0D0C000C001C07F
:1003DB0002C003C0047C20E4F8F9FAFBC3E5303318
:1003EB00F530E53133F531E53233F532E53333F5BD
:1003FB0033E833F8E933F9EA33FAEB33FBC3E89527
:10040B0034E99535EA9536EB95374013E89534F892
:10041B00E99535F9EA9536FAEB9537FB433001DC74
:10042B00BBD004D003D002D001D000D0D0D0E0227A
:10043B004672657175656E63792028487A293A0092
:10044B0043617061636974616E636520286E462930
:10045B003A0043617061636974616E63652028754E
:10046B0046293A00202020202057656C636F6D656C
:10047B00202020200043686F6F736520616E204F32
:10048B007074696F6E0042313A2046726571756502
:10049B006E63792020200042323A2043617020693C
:1004AB006E206E462020200042333A20436170209C
:1004BB00696E2075462020200042343A2052656335
:1004CB00616C63756C6174652000202020202020F6
:1004DB0020202020202020202020007AC679F578AB
:1004EB00A7D8FED9FADAF62275817F7597DE759754
:1004FB00AD75E10075E21075E34075A90075A900B3
:10050B00E5A930E7FBC28CE58954F04405F5891267
:10051B00005DC083C082C0E090046FE412009F12A4
:10052B000092D0E0D082D083C002C0037B017AC896
:10053B0012000E7AC812000E7AC812000E7AC81278
:10054B00000E7AC812000EDBE5D002D003C083C0C8
:10055B0082C0E0900480E412009D120092D0E0D0A3
:10056B0082D083C002C0037B027AC812000E7AC805
:10057B0012000E7AC812000E7AC812000E7AC81238
:10058B00000EDBE5D002D003C083C082C0E0900434
:10059B0091E412009F120092D0E0D082D083C083EE
:1005AB00C082C0E09004A2E412009D120092D0E041
:1005BB00D082D083C002C0037B027AC812000E7AAD
:1005CB00C812000E7AC812000E7AC812000E7AC832
:1005DB0012000EDBE5D002D003C083C082C0E090D6
:1005EB0004B3E412009F120092D0E0D082D083C0FB
:1005FB0083C082C0E09004C4E412009D120092D02C
:10060B00E0D082D08320A112C0027A3212000ED029
:10061B000220A10630A1FD02051D20B312C0027AF3
:10062B003212000ED00220B30630B3FD0206742046
:10063B00B012C0027A3212000ED00220B00630B0D7
:10064B00FD02070720A4BEC0027A3212000ED002B0
:10065B0020A4B230A4FD0207C9C28C758A00758C28
:10066B0000D28C1204E6C28C22C083C082C0E09000
:10067B00043BE412009F120092D0E0D082D083C0E2
:10068B0083C082C0E09004D5E412009D120092D08A
:10069B00E0D082D083120664C0E074011412009D76
:1006AB00D0E012017E1201A020A112C0027A3212F8
:1006BB00000ED00220A10630A1FD02067420B31259
:1006CB00C0027A3212000ED00220B30630B3FD0204
:1006DB00067420B012C0027A3212000ED00220B083
:1006EB000630B0FD02070720A4BEC0027A3212000A
:1006FB000ED00220A4B230A4FD0207C9C083C08271
:10070B00C0E090044BE412009F120092D0E0D08224
:10071B00D083C083C082C0E09004D5E412009D1248
:10072B000092D0E0D082D083120664753000753110
:10073B00CA75329A75333B858A34858C357536008C
:10074B007537001203D27534907535007536007508
:10075B00370012034575342875350175360075372A
:10076B00001203D21201CB1200BA20A112C0027ADE
:10077B003212000ED00220A10630A1FD0207072085
:10078B00B312C0027A3212000ED00220B30630B37D
:10079B00FD02067420B012C0027A3212000ED00293
:1007AB0020B00630B0FD02070720A4BEC0027A328B
:1007BB0012000ED00220A4B230A4FD0207C9C083E0
:1007CB00C082C0E090045DE412009F120092D0E062
:1007DB00D082D083C083C082C0E09004D5E41200E5
:1007EB009D120092D0E0D082D08312066475304007
:1007FB0075314275320F753300858A34858C3575AA
:10080B0036007537001203D2753490753500753686
:10081B0000753700120345753428753501753600A0
:10082B007537001203D21201CB1200BA20A112C0ED
:10083B00027A3212000ED00220A10630A1FD02076F
:10084B00C920B312C0027A3212000ED00220B306B6
:10085B0030B3FD02067420B012C0027A3212000EC1
:10086B00D00220B00630B0FD02070720A4BEC002A4
:10087B007A3212000ED00220A4B230A4FD0207C9B6
:00000001FF
